:020000040800F2
:10000000106C0020410100086B0100081D6500080C
:1000100000000000000000000000000000000000E0
:1000200000000000000000000000000035A00008F3
:100030000000000000000000FF000008DDB3000821
:1000400075010008750100087501000875010008B8
:100050007501000875010008A53400087501000845
:10006000750100081D250008292500086D250008D8
:100070007501000875010008750100087501000888
:100080007501000875010008750100087501000878
:100090007501000875010008750100087501000868
:1000A00021650008750100087501000899BC000869
:1000B000A9BC0008B9BC00087501000803488546C2
:1000C00000F0E6FD0048004785000108106C0020A4
:1000D000064B19680868203080F30988022080F3F5
:1000E00014883FBCAE4662B600BD000098030020F5
:1000F000EFF3108072B6704780F310887047EFF30B
:1001000009800E4B1A6820381060F0C044464D46F6
:1001100056465F46F0C008B572B612F003FC62B6F0
:100120000CBC116808681030F0C8A046A946B24659
:10013000BB4680F309882038F0C818479803002090
:100140000D480E49026800608A4203D00C4880477F
:100150000C4800470C480D4901600D480B490160EF
:100160000C4801688D4640680047FEE7FEE7FEE761
:10017000FEE7FEE7FEE70000F07F0020EFBEADDE09
:100180008DB40008BD0000081810024001000000F6
:100190000000014000D8FF1F30B50B46014600208B
:1001A0002022012409E00D46D5409D4205D31D467D
:1001B0009540491B2546954040191546521E002D75
:1001C000F1DC30BD70B500242546002801DA012499
:1001D0004042002901DA01254942FFF7DDFFAC4228
:1001E00000D04042002C00D0494270BDF0B51FB491
:1001F00086B000200090019002900698069980B287
:1002000004900798090C020400141143079000277A
:10021000089D099806913E463C4603900398A9B272
:100220000204000C039004982D0C15434843002150
:10023000224600F0A5FAC719714110340E46402C31
:10024000ECDB3846029A00F09BFA009A019B80187A
:100250000090594102980191103002904028CCDB67
:1002600000980BB0F0BD10B5202A04DB0846203AF8
:10027000D040002110BD0B46D340D0402024A21A0C
:1002800091400843194610BD00487047B438010832
:1002900010B50446FFF7F8FF0068005DC007C00F07
:1002A00010BD01464139192900D82030704700009F
:1002B0000549064A08685043054A80180860400806
:1002C0007047014908607047C00600206D4EC64166
:1002D0003930000003460B439B0703D009E008C9EF
:1002E000121F08C0042AFAD203E00B780370401CE6
:1002F000491C521EF9D27047D2B201E00270401C74
:10030000491EFBD270470022F6E710B513460A4695
:1003100004461946FFF7F0FF204610BD421E5378F1
:10032000521C002BFBD10B781370491C521C002B64
:10033000F9D1704710B5044605E00B780370401CF6
:10034000002B00D0491C521EF7D2204610BDCAB265
:10035000401E4178401C8A4202D00029F9D1002079
:100360007047421C0178401C0029FBD1801A70475D
:1003700010B5002200E0521C835C8C5CA34201D1CA
:10038000002BF8D1D8B2E1B2401A10BD30B5044606
:100390000020034600E05B1C934203D2E05CCD5C8E
:1003A000401BF8D030BD03460A780270401C491C3F
:1003B000002AF9D11846704730B50546002003469B
:1003C00000E05B1C934205D2EC5CC85C201A01D1B2
:1003D000002CF6D130BD000070B5104D002800D1C2
:1003E0002868002414E00A4602E09E4203D0521C12
:1003F0001378002BF9D1DAB2224307D0002B06D0B4
:10040000002C04D000210170401C04E00446401C74
:100410000678002EE7D12860204670BDC406002073
:1004200070B506460EF044FA046805460A2200211B
:10043000304600F007FA2C6070BD70B506460EF02D
:1004400037FA046805460A220021304600F0FAF91E
:100450002C6070BDF8B502464A40D40F42004B00F4
:1004600052085B089A4202D20246084611464A00E8
:1004700023D0C30D4A00DDB2120EAD1A202D35DA9D
:1004800049020126490AF6058A19002C00D0524279
:1004900020214F1B1146B9402A411018C20D9A4223
:1004A00021D0002C17D0012D08DCDA05801AD20FDC
:1004B0008019D207DBB200F005FAF8BDDA05801A20
:1004C000012340001B06C01880185A428018CA0F2A
:1004D0001043490007E04908C2071143DA05801AB2
:1004E00080194008801800F0E5F9F8BD610001228C
:1004F000511A001BF7E70122D2075140AAE7012257
:10050000D2075040A6E770B502464A40D50F4000DA
:100510004A00ED0740085208002814D0002A12D0E3
:10052000C40DD30D41020120C0055202490A520AEE
:10053000E41A091812187D34914201D3641C00E0BA
:100540004900002C01DA002070BD0023914201D344
:10055000891A0343400849000028F7D100290AD02E
:10056000914202D10121C90705E0914201D2012146
:1005700001E00121C943E005C018401900F09AF9D3
:1005800070BD0000F0B50C465C4085B0E40FE40798
:1005900003944C000026640859009446490802461A
:1005A0000296224321D062460A431ED06200570DB4
:1005B0004A000E032303550D012402462C4924054D
:1005C000781B1B0B360B40182343264361460090D3
:1005D0001C46501AB44103D30098401C009002E01E
:1005E000921800985B41002803DA0020014605B00C
:1005F000F0BD0020012109050746864611E064464A
:100600001D46141BB54106D36546521BB3417446C3
:1006100007430C43A646CD074008490828439218D3
:100620005B4105460D43EAD11046184313D060469E
:10063000194650407140084306D06046101AB34135
:1006400006D20122002306E000220123DB0702E09C
:100650000122D2435310009874460105381C6141B1
:10066000029C039D0019694100F065F9BFE7000095
:10067000FD030000C217C10F504010B54018CA0753
:100680009623002100F01EF910BD10B5002296231C
:10069000114600F017F910BDC20FD2074000400804
:1006A0000BD0C10D0723DB01C91840020905400A20
:1006B0001143C208400711437047002001467047AC
:1006C000CB0FDB07490010B5490802460A4307D0A3
:1006D0000A0D07240903E401090B121B002A01DC9F
:1006E000002010BDC900440F0C43C100E018D20522
:1006F000801800F0DFF810BD0122D207002800DBCF
:10070000101A002900DB511A814270470122D207DA
:10071000002800DB101A002900DB511A88427047BC
:10072000F0B51FB40646002082B005464024019172
:1007300000901BE0019922460F463046FFF793FDDB
:10074000049A059B801A994110D3104619462246F7
:1007500000F016F8361A8F41019722460120002139
:10076000009F00F00DF838184D4100902046641E9F
:100770000028DFDC019B00982946324607B0F0BD17
:1007800010B5202A04DB0146203A9140002010BD1C
:10079000914020239C1A0346E3401943904010BD2A
:1007A0000FB400B589B00CA900910B990023CB6060
:1007B000204B214A06930792042201921F4A02927B
:1007C0001F4A089202466B46002000F016FB09B053
:1007D00008BC04B0184770B586B006460020C04378
:1007E0000190002015460C4600910291049032467B
:1007F000694604A8FFF7D4FF024604982118002D8B
:1008000005D0002801D0084600E020462860049862
:1008100000280DD0002A02DD0098884208D0081B6D
:100820000190009432466946029404A8FFF7B8FF8D
:1008300006B070BD5110000871100008FFFFFF7F67
:1008400091020008F7B5009C0F4600262578641C2D
:10085000002D05D0FFF718FD0068405DC007F5D1F9
:100860002B2D02D02D2D18D0641E39462046029A19
:1008700000F010FC002F04D03968A14201D100998A
:1008800039607105022400290BDA4042002803DD9B
:100890000EF00EF80460A007FEBD012080020643A2
:1008A000E3E70028F8DA0EF003F804600048FEBD24
:1008B000FFFFFF7F002904DA401C490001D14008F6
:1008C0004000704770B40024050C05D110240004CA
:1008D00002D1002921D01124050E01D100020834D3
:1008E000050F01D10001241D850F01D18000A41C3A
:1008F000002801DB4000641C002908D020252E1BA5
:100900000D46F540A14000D00121294308430106CE
:100910001B1B000ADB1D02D5002070BC7047DB05E5
:10092000181880180029F8DA401C4900F5D170BC6D
:1009300040084000704710B5002B08DA0024401C26
:10094000614192185B411A4301D14008400010BD3B
:10095000F0B51FB482B005460C0003D008460DF078
:1009600083FF02E00DF080FF203002460090214618
:100970002846FFF705FF049B059A04460F461843D7
:100980001143084314D0184610431BD0009840214F
:100990000A1A18460599FFF766FC05460E46009AA6
:1009A00005990498FFF7ECFE084305D0012004E008
:1009B0002046394607B0F0BD0020C11705430E435D
:1009C0002C43374300990E986305401A7905E40AD1
:1009D00000220C43FD0A0A3002D500200146E9E757
:1009E0000105101969410C9C0D9D00196941FFF723
:1009F000A2FFDFE7F0B507460846584087B0C00FB2
:100A0000049048000E46590040084908BC1A884125
:100A100005D2384631461E4617460B460246580058
:100A2000400810434CD0300D039040055900400D54
:100A3000490D0590401A0290402872DA18030121EE
:100A4000000B09050843019004980092002805D086
:100A50000199524200208841009201900298402161
:100A60000A1A01990098FFF78BFE05460C466B4663
:100A700007CB00F01FF9C0197141039A0E0D002336
:100A8000D71756401A467A40164344D0049A002A93
:100A90002DD0029A012A039A15DC1205C01A914141
:100AA00001263605001C7141D20F059ED207009326
:100AB000019202962A462346FFF74AFF07B0F0BD8F
:100AC00038463146FAE71605224A0F46B218C01AD0
:100AD000B74101210905001C4F4100187F41114613
:100AE00018187941E20F10436D19644113E0E207D1
:100AF0006D0815436408C2071443039A01261205C2
:100B0000C01A91413605001C7141CE0740083043A0
:100B10004908C01851412A462346FFF70CFFCDE78C
:100B2000FFE7049801224000C117121A00238B41ED
:100B300004983146C417381AA141EEE730B40124B5
:100B4000E407634030BC55E730B40124E40761405A
:100B500030BC4FE70000E0FFF0B51FB488B00B9940
:100B60000998002448400999C00F49004908099193
:100B7000C0070B990090490049080B910999089802
:100B8000A64608431CD00B990A98084318D0099828
:100B900001244000420D4800410D0998240500033E
:100BA000000B204309900B980003000B20430B908F
:100BB00050181C494018002201901446104605E0C8
:100BC000002001460DB0F0BD032801DA034600E025
:100BD00003239C46C11A0AAE0AE05F0008ADED5B34
:100BE0004F00F75B7D430027AA187C41491C5B1E20
:100BF0006145F2DD410004AB5A522104120C0A4354
:100C0000240C401C0828DFDB0198029000997046F4
:100C100001910090059B049A07990698FFF798FEAA
:100C2000D0E700000DFCFFFF4A0009030123090B78
:100C30001B0519430A4B10B5520D9A4202DA0020E7
:100C4000014610BD064B34339A4203DC9A1AFFF773
:100C50000AFB10BD034BD218FFF792FD10BD000038
:100C6000FF030000CDFBFFFF10B5002904DB0124CA
:100C7000E40740428C412146002B04DB1C46012343
:100C8000DB075242A341994200D1904210BD0000BF
:100C9000064C0125064E05E0E36807CC2B430C3CCF
:100CA00098471034B442F7D3FFF70CFA8C5B010875
:100CB000AC5B010810B5202A06DBCB170846203AAA
:100CC0001041C1170B4306E00B461341D0402024CE
:100CD000A21A91400843194610BD0000FFB50878DC
:100CE00089B01546FF2805D0491C2D2804D00022C4
:100CF000002407E000240BE00122F9E70A235C430B
:100D00000419491C0878FF28F8D1002A00D0644251
:100D1000002004902A7801462D2A01D02B2A0FD1D9
:100D20006D1C2D2A02D00022049209E00122FBE76B
:100D300000260A2233466D1CFFF758FA3818714115
:100D40002F78FF2FF4D10C9AA218069202460A437C
:100D500004D0FF23069A9133DA4205DA002109987C
:100D60000A4606C00DB0F0BD0024B74AB54D264670
:100D7000079200F0F1F9029006980391002801DA39
:100D8000474200E0074639050020AF4A001C5141A8
:100D90000191009012E0F80707D022462B4630461A
:100DA0000799FFF7D9FE0646079122462B461046C3
:100DB0001946FFF7D1FE04460D467F10002FEAD1F9
:100DC0000698019B0028009A0399029806DAFFF71B
:100DD000D9FB3246079BFFF7D5FB05E0FFF7BCFECA
:100DE0003246079BFFF7B8FE049A002A02D0012280
:100DF000D2075140099A03C2B4E7FFB591B0002071
:100E000009900025ED432E209E685C681F460190E6
:100E1000B9696D1C129888470090396A8847002884
:100E2000F6D10098401C0AD00D20C0018443002E4A
:100E300012DD00982B2809D02D280DD103E00020C9
:100E4000C04315B0F0BD012080020443B9696D1C98
:100E500012988847761E009003A9600501D52D20C1
:100E600000E02B206A461073491C0CA80F910290D9
:100E70000AE0B9696D1C1298884700900120400271
:100E800004431398761E0560002E02DD009830287A
:100E9000EFD001990098884246D18020044308E0B1
:100EA0000998401E09900120400204431399681CD0
:100EB0000860B9696D1C761E12988847009030282A
:100EC000EED031E00199884205D1200603D480207C
:100ED0000443761E1EE000980DF01AFE002826D06E
:100EE00001204002044307A90F980331761E88426F
:100EF0000BD200980F99303808700F98401C0F9053
:100F0000200607D50998401E03E0200602D4099860
:100F1000401C0990A00502D51399681C0860B969A6
:100F20006D1C129888470090002ECBDC59E0002EF3
:100F300057DD0098652801D0452852D1A00550D52D
:100F4000032000028443B9696D1C761E12988847FD
:100F50000090002E0CDD2B2804D02D2808D1FF2076
:100F600001300443B9696D1C12988847761E0090C1
:100F7000E00501D52D2100E02B2102980170029897
:100F8000401C0290019025E00120400204430EA97C
:100F900002980131761E88420ED2009802993038AC
:100FA0000006000E087003D10299019881420AD907
:100FB0000298401C029006E0E00501D5234801E0BC
:100FC000224840420990B9696D1C129888470090E8
:100FD00013980560002E04DD00980DF099FD00289F
:100FE000D2D1F969129888470F99FF2008700299A9
:100FF00003AA087000200A900B900CA90AA8099B6C
:10100000FFF76CFEA00502D40120C04319E724209D
:10101000044209D0E00713D138680B9A0A99031DDE
:101020003B60006806C00BE00B990A98FFF748FB8D
:101030000146E00704D13868021D3A60006801608B
:101040002846FEE6000014400000F03FF1D8FFFF04
:101050004268002A08D001680B78491C002B03D095
:10106000521E06C0184670470121C160881E704795
:101070004268002A0BD0C3680168002B07D183683F
:101080008B4204D0491E521C06C00020704700202D
:10109000C0437047F7B582B0029C00272078641CDB
:1010A00015460197302802D0002D15D015E0207884
:1010B0000127641C782804D0582802D0002D09D0BC
:1010C0000BE0002D01D0102D07D10027102520782E
:1010D000641C02E0082500E00A250026009610E0C6
:1010E0000099012769430818020C294680B2714310
:1010F00000908E183804864201D301200190207898
:10110000641C294600F019F80028E9DA0398002841
:1011100005D0002F01D0641E00E0029C04600198FD
:10112000002806D00DF0C4FB02210160C81E05B0E6
:10113000F0BD009930040843F9E73A2800D230386E
:10114000202302469A43412A01D310463738884269
:1011500001D30020C04370470EB5054A0292002219
:10116000009213460192FFF7F3FB03B000BD0000AD
:101170003304000070B58C180578401C6B075B0FBA
:1011800001D10378401C2A1106D10278401C03E0EB
:1011900006780E70401C491C5B1EF9D12B0705D444
:1011A0000023521E0DD40B70491CFAE70378401C33
:1011B000CB1A921C03E01D780D70491C5B1C521E5B
:1011C000F9D5A142D8D3002070BD0000F3B581B09D
:1011D000002100910024344E401E45000A20604347
:1011E00081190298FFF7C4F8002811D0641C0A2C5A
:1011F000F4DB00242D4FA000C1190298FFF7B8F8C6
:1012000000280ED0641C042CF5DB0124284F15E0C7
:10121000274A01202C32515BA040014351530098D2
:10122000FEBD0620FEBD20490A20604364314118FE
:101230000298FFF79DF8002806D0641C7878844255
:10124000F1DB1C48786410E00720FEBD00680468EC
:101250002046FFF786F8024621460298FFF7ACF8D1
:10126000002818D0786C40687864786C0028EDD13C
:10127000002420460A214843305C00280DD0641C1D
:101280000A2CF6DB0A4A01202C32515BA0400143B4
:1012900051530098FEBD0820FEBD0A20604380190E
:1012A0000299FFF780F8EDE7420700208635010834
:1012B0001800002090030020F3B58DB00C460020EC
:1012C0000B90414EB07A002808D04048A500405904
:1012D0000EF062FF3E4840590EF05EFF3D4904208B
:1012E0000855B07A002804D0204602F005FD04F02D
:1012F0003CFD02A8009004AB03AA05A9204602F019
:101300006DFC6846808906900120079000250895AD
:10131000099506A9059803F0C1FA68460089069068
:1013200007950220089006A9049803F0B7FAE10097
:10133000294A611889180D984870601E85002E464C
:10134000EC36B0B201A902F023F80D9A2103120283
:101350001143B21C771CEF3589B20C92002813D0D0
:101360000191B0B202F088F8B8B2002102F084F81E
:101370000C98002180B202F07FF8A8B2002102F0A0
:101380007BF80B980FB0F0BD68468088000A020910
:10139000A24206D102070D98120F824201D100200D
:1013A000F0E70191B0B202F067F8B8B2002102F0A4
:1013B00063F80C98002180B202F05EF8A8B2002118
:1013C00002F05AF8DDE70000180000203810002075
:1013D00054100020EA0100208D0A0020F8B50F46C5
:1013E00001280FD02C4E2D4D31781422491E514327
:1013F000491902280AD0032846D10120087408F0B0
:10140000EDFE41E0384606F0B9FAF8BDC86800289C
:1014100023D0FEF7A6FF04463846FEF7A2FF0119C7
:1014200030781422401E50434019891CC0680FF0C8
:101430007BFD31781422491E51434919C860611C53
:1014400040183946FEF7AFFF30781422401E1321B2
:1014500050434019C06801550EE03846FEF781FF41
:10146000401C0DF05BFA31781422491E5143491992
:10147000C8603946FEF797FF30781421401E484374
:101480004019C168002901D00020F8BD1421FEF7E1
:101490003AFF0E20F8BD0000A4020020D40D002069
:1014A000F0B587B00E9E0F9D0D9C7D273F01D21B8E
:1014B0006F46FA767876B9763B76002206A91D4803
:1014C00004F0DAFA002802D0FF2007B0F0BD694628
:1014D0000E714C710C988871002005901822164CE2
:1014E0000C2E00D962730C21012D0BD0022D0DD0D2
:1014F0006273002201A90F4804F02EFB00280AD0D5
:10150000FF20E2E76A4610736173F2E740206A4603
:1015100010736173EDE7607B010220790143FF20C6
:101520001B3001F0A9FF054A0121024804F0FFF930
:101530000020CAE7C40C0020B80B0020F2320000E3
:10154000F8B507F09DFD02F0A3FB01F009FD02F0E4
:101550005BFA01F069F80AF03BF800F0E5FC0AF0EC
:1015600009F805F0F9FA002803D001F0E9FC06F0CB
:101570001BF905F063FB0127334D002813D02F73AF
:10158000322009F01FFD06F059F8E1202F4E4002ED
:10159000B06001242046B1680AF018FC641CE4B273
:1015A000062CF7D904E0322009F00CFD06F046F8CD
:1015B00005F0D6FD09F01EFCA87801260924F602E4
:1015C000E406002831D001223146204603F01DFAFE
:1015D000FF20F53009F0F6FC00223146204603F0EA
:1015E00014FA642009F0EEFC01223146204603F093
:1015F0000CFA642009F0E6FC00223146204603F094
:1016000004FA642009F0DEFC01223146204603F092
:10161000FCF9642009F0D6FC00223146204603F094
:10162000F4F908F0E7FCAF72F8BD0122314620461C
:1016300003F0EBF9FF20F53009F0C4FC002231463D
:10164000204603F0E2F9ECE718000020B80B002078
:101650008CB00025002000900124B948005D0128CD
:1016600001D000287ED1B748001920380B90C67FE2
:1016700040E03F2E0ADA601E8101B3480818815D00
:10168000482903D1801940785A2802D03F2E02D031
:101690000CE0354630E0601EAB4980014218203234
:1016A000D27F482A02D1085C5A2802D03F2E02D0AD
:1016B0001FE03F2520E0A548C07E002817D10B98E9
:1016C000C07FA14B611E8A01D1180EE00F5C0D2F67
:1016D0000AD13F2803DA0F187F78002F12D03F2855
:1016E00002D19F5C002F0DD0401C4028EEDB012072
:1016F0000090761C402EBCDB0098002816D00020FD
:10170000009015E100220A540B99401CC8779049BB
:101710008B480B78C254032202550C708D4800236D
:1017200002221946806911F0E7FCE0E73D2D23D045
:101730003E2D2AD03F2D2FD0601E810182480818EF
:1017400040198678E81C0190AF19FF1C3F2F00DD7F
:10175000403FBD427CD0012002F0D8FFBD4223DAD9
:10176000601E00E0CDE081017748F21C08184119A5
:101770007948FEF7AFFD2CE0601E81017248081821
:101780002030C67F00200190DEE7601E81016E4898
:10179000465C01200190D7E7601E81016A48081865
:1017A000467802200190CFE74020421B601E810155
:1017B00065480A920918099149196748FEF78AFD98
:1017C0000A9A6548B31ADB1C10181A460999FEF7E5
:1017D00081FDF01CC117890F0818821008905E491E
:1017E0005E4802F01AFB5B490870F01C80070AD0C3
:1017F000089801228108584889000918574802F0C2
:10180000DFFA5449087038215348FEF77CFD601E0A
:101810004D49820151180791CA5D4E4909788A42A3
:101820004CD1474901220A554D4909192039CE7733
:1018300001993F22511AB1420BDB019A079989188D
:1018400038225043474A80183246FEF743FD15E0E0
:1018500034E0019A40218A1A0692019B0799C9181F
:10186000382358433F4BC0180590FEF733FD069AC6
:10187000059807998018B21AFEF72CFDBD4205DACB
:101880000798311D4019FEF73EFD0CE04020411B3A
:10189000079804914019FEF736FD04990798711ACC
:1018A000091DFEF730FD0B987F1CC77729488188FA
:1018B000491C8180204605F0E1FF39E0BD4208DA8D
:1018C000601E8101204808184019311DFEF71BFDDC
:1018D00010E04020411B601E82011B48039110183C
:1018E00002904019FEF70FFD03990298711A091D25
:1018F000FEF709FD0B987F1CC77716494888401CE6
:101900004880194800192038C17F012910D10021D1
:10191000C1770B48025D052A00D10155204602F02F
:10192000EBF9611E8A0108495118402204F01AFCA3
:10193000641CE4B2062C00D88FE610F071FD8BE633
:10194000EA010020BC020020380E0020B80B002065
:1019500021000020CC020020B80F0020B817002082
:10196000E4010020C4070020C20200201FB50A467F
:101970000123991E019102910224044900940393CA
:101980008B78194609F030FB04B010BD1800002018
:1019900038B51C460D4B0125DD701971FF290CD09F
:1019A00013460146FE220020009408F013FE214653
:1019B0000748FEF7A8FC002038BD13460146FF2269
:1019C0000020009408F006FEF1E700001800002057
:1019D0004C09002038B500240A4A0023D370107146
:1019E000FF2807D00091FE221946184608F0F2FDA4
:1019F000204638BD00230091FF221946184608F002
:101A0000E9FDF5E718000020FFB585B00027029733
:101A100003970497079809F05FFCCF4C6078002883
:101A200006D10322CDA10798FEF7C6FC002838D0C6
:101A30006078002806D00622C9A10798FEF7BCFCF2
:101A4000002842D0C4484078022849D02E21079867
:101A5000FEF77DFC044620007ED00322C2A1E01EDA
:101A6000FEF7AAFC0028F7D0FEF70EFC00686178AC
:101A7000405C2028F0D00798221A014602A8FEF701
:101A800059FC02A802F00EF80546B84909788D42C3
:101A900036D199229200601C089901F039FF064660
:101AA00024E107990120C91CFFF798FC002805D004
:101AB000AF4908980CF0C4FE677004E00220607023
:101AC00008990D200870002610E16770A9A1032075
:101AD000FFF784FCA84908980CF0B2FE002605E147
:101AE00002200799FFF77AFC002804D0A049089843
:101AF0000CF0A6FE02E008990D2008700026F5E023
:101B0000642D4ED0662D52D0FF2D56D0E8B2FE285F
:101B10007AD0062299A1601CFEF74EFC002874D0F2
:101B20000798FEF71EFC064602A8FEF71AFC321ABA
:101B3000521E611C9348FEF7FDFB0798FEF711FC4F
:101B4000044602A8FEF70DFC201A401E82B2E8B23D
:101B5000172108F0BDFE00E0C1E02A468AA10898DE
:101B60000CF06EFE0898FEF7FCFB00280DD00698DE
:101B700000280AD00898FEF7F4FB82B201200090FA
:101B800032230899059810F063FF0898FEF7E9FBE7
:101B900001460898FEF7B7FB84488079602875D025
:101BA0009BE083A108980CF04BFE00269EE08AA1E2
:101BB00008980CF045FE002698E0914807704770A1
:101BC0000798FEF7CEFB054602A8FEF7CAFB2A1AC5
:101BD000521E611C6B48FEF7ADFB0798FEF7C1FB78
:101BE000054602A8FEF7BDFB281A83B25F481722FC
:101BF000FF210078FFF7CCFE99229200601C089923
:101C000001F086FE064601E005E040E07DA108986F
:101C1000FEF784FB6AE05049281288707848077004
:101C200047700798FEF79DFB054602A8FEF799FB53
:101C30002A1A521E611C5348FEF77CFB0798FEF7D8
:101C400090FB054602A8FEF78CFB281A83B2424897
:101C5000464D817817222878FFF79AFE2878401E93
:101C600041007048405A3C498978C840C00706D0B6
:101C700099229200601C089901F04AFE0646089AD3
:101C800002AB69A110460CF0DBFD2FE012E04748E3
:101C90008771E8B20022192108F01AFE64200EF0C4
:101CA00055FA6C48E9B202783048002300780FF00A
:101CB00075F971E77D21C900012010F013FA66481B
:101CC0000078002809D065480188491C0180089ADD
:101CD0002B4663A110460CF0B3FD002606E09922C6
:101CE00092000899079801F013FE06460898FEF73F
:101CF00038FB00280ED0069800280BD00898FEF775
:101D000030FB82B20020C04300903223089905982E
:101D100010F09EFE0898FEF724FB01460898FEF797
:101D2000F2FA002E00D075E60297039704970A4C4A
:101D3000607800280DD1069800280AD0E068FEF7E8
:101D400010FB82B2701E00903223E168059810F0FB
:101D50007FFE09B0F0BD0000A402002069662000EB
:101D6000656E642069660000626F73001A000020CF
:101D70007054010800000000C454010875706461CB
:101D8000746500004C090020436F6D6D616E642026
:101D9000666F7277617264656420746F204D6F6442
:101DA000756C652025640A0D00000000B80B00204A
:101DB00057726F6E67206D6F64756C65206E616D14
:101DC000652120506C6561736520747279206167AC
:101DD00061696E2E0A0D000057726F6E67206D6F7D
:101DE00064756C652049442120506C6561736520E1
:101DF00074727920616761696E2E0A0D000000001F
:101E000084020020436F6D6D616E642062726F61A9
:101E10006463617374656420746F20616C6C0A0D77
:101E2000000000004400002025734D756C74696348
:101E300061737420436F6D6D616E6420666F72779D
:101E4000617264656420746F2067726F75702025FD
:101E5000730A0D00210000201F0000200003002055
:101E600025734D6F64756C65202564206973206E41
:101E70006F7420726561636861626C652E0A0D0083
:101E800070B5002355080AE09C000C5B5E0024043A
:101E9000761C76008E5B3443066834605B1C9D4282
:101EA000F2D8D20703D09A00895A026811800068DC
:101EB000006870BDF0B5002397080EE09D006C1817
:101EC0004D5DE6782D062E436578A4782D04240216
:101ED000254304682E4326605B1C9F42EED894077E
:101EE0001FD09407A40F012C03D19D0006684D5DFF
:101EF0003570022C07D19C000D5D2D0264186478AA
:101F0000254304682580D24392070AD19A008B5C4E
:101F10001B0251184A7813430268138002688978BB
:101F2000117000680068F0BD10B5084806490160EE
:101F30001021C16000214171017141618161032162
:101F4000016201F09BFF10BD00300240B817002075
:101F5000F0B587B00020019000250124E000201892
:101F6000DF4F0690C6197078002876D0DD48407B98
:101F7000002802D106980021395402A8009004AB31
:101F800003AA05A9204601F029FE6846818900229E
:101F9000059802F03AFD0A2009F002F86846018926
:101FA000049802F027FD00280ED16846818901229D
:101FB000059802F02AFD0A2008F0F2FF6846018920
:101FC000049802F017FD0190684681890022059867
:101FD00002F01BFD7078012806D002280FD00328DC
:101FE00018D004282BD120E00198012803D00198B3
:101FF000002802D023E0042521E003251FE00198FA
:10200000012803D00198002802D018E0042516E02A
:10201000032514E00198012803D00198002802D07C
:102020000DE002250BE0012509E00198012803D00D
:102030000198002802D002E0012500E00225042DCD
:1020400001D0022D0CD1A64AA0003F321158A64B58
:10205000994203D2491C115002E0C7E000211150FF
:10206000032D01D0012D21D19D4AA0005B321158D2
:102070009D4B994202D2491C115001E000211150A0
:10208000984B987D022808D19849994A085D527961
:10209000904202D8401C085508E0944994480A5DD3
:1020A0004079824202D90020987508558C489049A1
:1020B000A7003F300988C0598C46884242D360450A
:1020C00007D1874A06990723535411463F31401CD4
:1020D000C8518348864B5B30C259624501D9002103
:1020E000C1517F4859883F30C0591A4688421BD990
:1020F000FF21F531884217D27A49887D002802D025
:10210000022803D01EE0012088751BE0774B11796F
:10211000185D884216D95179884213D2714803213B
:102120008175002018550DE0FF387249F538884256
:1021300008D26C48817D002901D00021817520469C
:1021400000F0FEF866486A495B300A88C059944638
:10215000904238D3604507D1614A06990823535409
:1021600011465B31401CC8515D4A61493F32D0592C
:10217000604501D90020D051594849885B30C05989
:10218000884218D9FF21F531884214D25549887DFB
:10219000012802D0032807D015E0514A06980523EC
:1021A0001354022088750EE04D4A069806231354F6
:1021B0000020887507E0FF384E49F538884202D282
:1021C000204600F0E1F8464F0698385C401F0300B7
:1021D0000CF061FB0A1421060D2E3B495764727FF7
:1021E00020460DF0E3F906990020785471E020466E
:1021F0000DF0DEF90699002078546AE03948417BF9
:10220000002966D1317AC90763D001214173204684
:102210000DF0CAF95DE03348417B002959D1317A8C
:10222000890756D50121417320460DF0BEF950E0D3
:102230002C48417B00294CD1317A490749D50121ED
:10224000417320460DF0B3F943E02648417B002955
:102250003FD1317A09073CD5012141730221204643
:102260000DF0A5F935E01F48417B002931D1317AC5
:10227000C9062ED501214173032120460DF097F99F
:1022800027E01848417B002923D1317A890620D5DF
:102290000121417320460DF08CF91AE01148417B71
:1022A000002916D1317A490613D501214173022143
:1022B00020460DF07EF90CE00A48417B002908D148
:1022C000317A090605D501214173032120460DF01D
:1022D00070F9641CE4B2062C00D83FE607B0F0BDEC
:1022E0008D0A002018000020FFFF0000F1010020EF
:1022F000B80B00200BFE000008B500200D490E4A67
:102300000978491E890189180A5C0D2A04D0401CED
:10231000C0B24028F8D308BD00220A5407484270D2
:102320000271009200231A460321806911F0B6F869
:1023300008BD000021000020380E0020040300200A
:10234000F0B50026C1000F4B4118CA189478D57813
:1023500012797D27FF007C437D437A43870018462E
:102360003F30C059A04202D10920585407E00A2446
:10237000A84201D15C5402E0904200D15C54304646
:10238000F0BD00008D0A0020F0B50026C1000F4B03
:102390004118CA1854799579D2797D27FF007C437A
:1023A0007D437A43870018465B30C059A04202D172
:1023B0000C20585407E00D24A84201D15C5402E0DF
:1023C000904200D15C543046F0BD00008D0A0020E0
:1023D00038B51421484330490A5C4118012A04D019
:1023E000022A56D0032A54D10BE08878C978C2005B
:1023F00080182A4A105C814201D1012038BD00209A
:1024000038BDC8780C22401E5043254A1058046835
:10241000C8886A46108008895080487803000CF00C
:102420003AFA0738050C131D242E3800204600996F
:10243000FEF762F92DD1012038BD20460099FEF744
:1024400065F926D2012038BD20460099FEF754F9DF
:102450001FD26000000E1CD0012038BD204600991C
:10246000FEF754F915D8012038BD20460099FEF733
:1024700043F90ED86000000E0BD0012038BD204675
:102480000099FEF739F904D06000000E01D0012058
:1024900038BD002038BD0000D40D00208D0A00207A
:1024A00070030020F8B500250D4800210185418505
:1024B00001240646283607460DE0601E4000315ACA
:1024C000002902D0601C00F0D7FFA01C1C2800D3FC
:1024D0000A25641CE4B278788442EED92846F8BD17
:1024E0001800002010B50949097801290AD00229ED
:1024F00007D1FEF7D1F8064A064BFEF743F8FEF780
:10250000DFF810BD0449FDF7FEFF10BD04030020F5
:1025100066666666666639400000204110B5012097
:1025200000F056F810BD000010B50D480068C0431B
:10253000C00603D4052000F04BF810BD094801681F
:10254000C943C90503D4022000F042F810BD006859
:10255000C043C006FAD4044801F0F8FC10BD0000E6
:102560000004024000000240C015002010B51548CC
:102570000168C943C90303D4032000F029F810BD42
:102580000168C943C90203D4042000F021F810BD3A
:102590000D490968C943C90503D4062000F018F89D
:1025A00010BD0168C943C90403D4084801F0CEFC3A
:1025B00010BD0068C043C001FAD40448383001F0AF
:1025C000C5FC10BD0000024000040240F8150020C8
:1025D00070B504461048611E005D0D463822514317
:1025E000022804D00D48081801F0B0FC70BD0C485A
:1025F000081801F0ABFC0B48A9000A4A4058183AE9
:10260000002802D053585B1C535051588142EDD3DF
:10261000204608F0B5FD70BDEA01002070140020CE
:10262000681600202010002008B5214841690122C9
:1026300011434161416911400091426902210A43FD
:1026400042614069084000901A491B4800F03AF87E
:10265000184919482831383000F034F8154916481F
:102660005031703000F02EF8124913486431A83010
:1026700000F028F810481149E03000F023F80F4925
:102680000F48143100F01EF80A490D481431383053
:1026900000F042F807490A483C31703000F03CF83D
:1026A000044907487831A83000F036F808BD00002A
:1026B0000010024008000240701400201C04024078
:1026C0008815002010B501600021416081608022E2
:1026D000C26001614161202181610902C16101F093
:1026E000C3FF10BD70B504460D462946204606F0CE
:1026F00061FD0021284608F077FA204601F040FAF3
:10270000401E0449800141184022204603F02AFD62
:1027100070BD0000380E002010B50160102141602E
:10272000002181608022C26001614161816191016B
:10273000C16101F099FF10BD10B502460E48416A13
:10274000002908D0C06D002807D00B4880304069B0
:10275000002805D006E0084C04E0074C383401E0BE
:10276000054C70342146104607F07CF800212046C5
:1027700008F03AFA10BD0000C015002010B504465C
:10278000206E09F0AFFA216E00204862206610BD6D
:1027900010B50160002141608160C160016141614B
:1027A00020218161C901C16101F05EFF10BD0000FF
:1027B000F8B504460D461646204601F0E1F9401EE4
:1027C00038214843094947183946204606F0F2FCAB
:1027D0000121384608F008FA0121692001552968CD
:1027E00032462831204603F0BDFCF8BD68160020B3
:1027F00010B5046863604368102B04D003689960C7
:102800000068C26010BD03689A600068C16010BDB6
:10281000F1B582B001F048F80190019800210170F3
:10282000724C73A1A27879480CF00AF877490198A4
:10283000FDF774FD627A76A174480CF001F87349D3
:102840000198FDF76BFD022003460090002277A15E
:102850006E480BF0F5FF6D490198FDF75FFD7BA217
:102860007DA16A480BF0ECFF68490198FDF756FD21
:102870007FA282A165480BF0E3FF64490198FDF750
:102880004DFD85A161480BF0DBFF60490198FDF724
:1028900045FD0124854D224685A15C480BF0D0FF03
:1028A0005A490198FDF73AFD285D03000BF0F3FF4C
:1028B0000504090E13181C007FA154480BF0C0FF3B
:1028C00012E07FA151480BF0BBFF0DE082A14F4801
:1028D0000BF0B6FF08E083A14C480BF0B1FF03E01A
:1028E00087A14A480BF0ACFF48490198FDF716FD57
:1028F000641CE4B2062CCED989A144480BF0A0FF99
:1029000042490198FDF70AFD01248B4E601E0146E5
:10291000382250430546305800285CD0880087494B
:10292000085801F02DF90746A819406A01F028F966
:102930000346224682A1354800970BF081FF3349B8
:102940000198FDF7EBFC641CE4B2062CDED956A11D
:102950000198FDF7E3FC86A10198FDF7DFFC0198E3
:10296000FDF7FFFC85B20124204EE703B0783A461C
:10297000401E41001D482830405A611ECA40104286
:1029800008D0224682A121480BF05AFF1F49019826
:10299000FDF7C4FC641CE4B2062CE7D90198FDF7EE
:1029A000E0FCA84203D17CA10198FDF7B7FC3EA151
:1029B0000198FDF7B3FC029800280BD00198FDF7B1
:1029C000D0FC82B20020C0430090322301990298CB
:1029D00010F03EF8FEBD224671A10C480BF030FF0E
:1029E0000A490198FDF79AFCADE7000018000020A5
:1029F0000A0D2A2A2A204D6F64756C6520256420F3
:102A0000537461747573202A2A2A0A00680B002007
:102A10000A0D436F6E6E656374656420766961208C
:102A2000706F72743A205025640A0D000A0D4669D1
:102A3000726D776172652076657273696F6E3A2088
:102A400025642E25642E2564000000004175672052
:102A500031342032303230000A0D4669726D7761B0
:102A6000726520646174653A20202020257300007F
:102A700031323A34313A3030000000000A0D4669F4
:102A8000726D776172652074696D653A202020202F
:102A900025730A0D000000000A0D506F7274732038
:102AA0005374617475733A0A0A0D0000EA0100203C
:102AB0005025643A20000000467265650A0D00004A
:102AC000526563656976696E67206D6573736167CA
:102AD00065730A0D0000000053747265616D696EC4
:102AE000670A0D00526563656976696E67207573C4
:102AF000657220636F6D6D616E64730A0D00000076
:102B0000436F6E6E656374656420746F206120622C
:102B10007574746F6E2F7377697463680A0D0000A3
:102B20000A0D444D412053747265616D73205374D6
:102B3000617475733A0A0D0068160020F00F0020CA
:102B40000A0D53747265616D696E6720444D4120B2
:102B500025642069732073747265616D696E6720E6
:102B600066726F6D2050256420746F2050256400BC
:102B70000A0D546865736520706F727473206172FA
:102B8000652072657665727365643A200000000006
:102B900050256420000000004E6F6E6500000000AC
:102BA0000A0D53747265616D696E6720444D412052
:102BB000256420697320667265650000F1B582B0F6
:102BC00023A12A480BF03CFE2848FDF7CAFB00274A
:102BD00082B2FF4332232549009702980FF038FF55
:102BE000012520E00124681E46002148621E815B09
:102BF0000120C003D04001420FD023462A461DA128
:102C00001A480BF01DFE1948FDF7ABFB82B23223C8
:102C10001649009702980FF01BFF641CE4B20A2CBF
:102C2000E3D96D1CEDB21248283840788542D9D9D5
:102C300015A10E480BF004FE0C48FDF792FB82B282
:102C400032230A49009702980FF002FFFEBD0000F0
:102C50000A0D546865736520706F72747320617219
:102C6000652072657665727365643A00680B0020B2
:102C7000400000200A0D4D6F64756C6520256420AE
:102C80003A205025640000000A0A0D416C6C206F48
:102C90007468657220706F72747320617265206E43
:102CA0006F726D616C0A0D00F1B582B049A14E489A
:102CB0000BF0C6FD4C48FDF754FB002682B2F643EC
:102CC00032234949009602980FF0C2FE01242246A1
:102CD00046A145480BF0B4FD4348FDF742FB82B2E4
:102CE00032234149009602980FF0B2FE641CE4B210
:102CF000062CECD9322303223EA1009602980FF055
:102D0000A7FE002551E06A1C3BA137480BF098FD57
:102D10003548FDF726FB002482B2E44332233249D2
:102D2000009402980FF094FE0E202F46354E474334
:102D3000F05B062148433449052241182A48FDF733
:102D4000F9FA322305222849009402980FF080FEF8
:102D50003223012223A1009402980FF079FE01246E
:102D60003046A61E3F186000385A00282BD0430773
:102D7000C2085B0F25A11C480BF062FD1A48FDF745
:102D8000F0FA82B232231849009602980FF060FEE2
:102D9000641CE4B2062CE6D9322302221DA100965F
:102DA00002980FF055FE6D1CEDB21B48407885422D
:102DB000A9D30020C04300903223012217A102981A
:102DC0000FF046FEFEBD002215A107480BF038FDAE
:102DD000D4E700000A0D284D6F64756C653A506F9A
:102DE0007274290909000000680B0020502564094D
:102DF000000000000A0A0D004D6F64756C65202507
:102E0000643A0900000200200835010825643A25CB
:102E1000640900000A0D0000180000200A000000EC
:102E20002564090013490988134A1288002816D01E
:102E3000012801D0002070471048002A03D0002943
:102E400007D0AB207047814201D10020704702209B
:102E50007047824201D1022070470020704700294C
:102E600003D0002A03D0AB20704700207047022017
:102E70007047000000E0010800F00108EEEE0000DD
:102E8000F8B501F0EBFC274F384600F065FB264D06
:102E9000284600F09BFB254C002802D0E06980B258
:102EA000F8BD234800F058FB284600F08FFB0028AF
:102EB00002D0E06980B2F8BD1E4E3069022188431D
:102EC0003061002213463946012001F085FC284676
:102ED00000F07CFB002802D0E06980B2F8BD3069C8
:102EE000400840003061144800F036FB284600F0EE
:102EF0006DFB002802D0E06980B2F8BD0F4800F0F9
:102F00002BFB284600F062FB0546002D02D0E0694D
:102F100080B2F8BD306940084000306101F052FCD9
:102F20002846F8BD00E0010850C30000D806002084
:102F300000E801080020024000F0010800F8010844
:102F400070B5054C054D206BA84204D0FFF798FFE3
:102F5000002800D1256370BDC07F0020ADDEEFBE2C
:102F6000F8B50025ED4301F079FCBB480188BB486A
:102F70000088BB4E2A0CBB4F002979D0BA4BC91828
:102F800066D0BA4AD14210D1002819D0594288429D
:102F900054D1B14800F0E0FAB54C204600F016FBE1
:102FA000002829D0F06980B2F8BDFFF769FFB0486A
:102FB00000F00CFB0028F7D101F004FC0020F8BD64
:102FC000A54800F0C9FAAA4C204600F0FFFA0028F4
:102FD00002D0F06980B2F8BDA64800F0BDFA2046E4
:102FE00000F0F4FA002802D0F06980B2F8BD386928
:102FF000022188433861DFE79E4800F0ADFA2046A1
:1030000000F0E4FA002802D0F06980B2F8BD396916
:10301000022081433961002213469049012001F0CA
:10302000DBFB204600F0D2FA002802D0F06980B223
:10303000F8BD3869400840003861BDE7FFF720FF60
:103040008B4800F0C3FA0028B6D0F06980B2F8BD12
:1030500000280ED090427ED1804800F07DFA844C4A
:10306000204600F0B3FA002852D0F06980B2F8BDD3
:103070007BE001247848C088A04200D125B2AC4250
:1030800012D07D49204600F083F901280CD07A48FF
:103090000188204600F0A0F90090754800F096FAEB
:1030A000002801D00098E2E7641CA4B2012080024D
:1030B0008442DFD9002213466749012001F08CFBCE
:1030C0006B4C204600F082FA002802D0F06980B2F2
:1030D000CDE73869400840003861604800F03CFAAC
:1030E000204600F073FA002802D0F06980B2BEE7F3
:1030F000624800F031FA204600F068FA002802D059
:10310000F06980B2B3E7386902218843386153E738
:103110005A4800F021FA204600F058FA002802D060
:10312000F06980B2A3E73969022081433961002246
:1031300013464949012001F04FFB204600F046FAB2
:10314000002803D0F06980B291E704E038694008B4
:103150004000386130E7FFF793FE454800F036FA4B
:103160000028D4D0F06980B281E700280DD09042C9
:1031700023D13A4800F0F0F93D4C204600F026FA01
:1031800000280AD0F06980B271E7FFF779FE38486D
:1031900000F01CFA002886D10EE7384800F0DCF970
:1031A000204600F013FA002802D0F06980B25EE7F2
:1031B0003869022188433861FEE601242748C08827
:1031C000A04200D125B2AC4212D02B49204600F0DB
:1031D000DFF801280CD028480188204600F0FCF8D0
:1031E0000090234800F0F2F9002801D000983EE753
:1031F000641CA4B2012080028442DFD9002213465D
:103200001649012001F0E8FA194C204600F0DEF9D9
:10321000002802D0F06980B229E7386940084000F0
:1032200038610D4800F098F9204600F0CFF90028E9
:1032300002D0F06980B21AE70E4800F08DF92046FE
:1032400000F0C4F9002802D0F06980B20FE73969B4
:10325000022081433961AFE600E0010800F0010877
:10326000D8060020002002401211FFFFEFEEFFFF02
:1032700050C3000000E80108C802002000F801085F
:10328000F3B581B00C4601F0E9FA0020FFF7CAFD62
:103290003849394D022803D0002803D0AB20FEBDA9
:1032A0000F4601E02F460D46344A002339460120DF
:1032B00001F092FA324800F089F9324E002802D02B
:1032C000F06980B2FEBD30480169490849000161DA
:1032D0002146019800F080F80028F3D101240198DC
:1032E00084420CD02949204600F052F8012806D02B
:1032F00026480188204600F06FF80028E2D1641CBF
:10330000A4B2012080028442E9D9284600F024F9C1
:103310001B4C204600F05AF9002802D0F06980B218
:10332000FEBD0120C002281800F016F9204600F06A
:103330004DF9002802D0F06980B2FEBD124D286917
:10334000022188432861002213463946012001F0FA
:1033500043FA204600F03AF90446002C02D0F06906
:1033600080B2FEBD286940084000286101F02AFAB9
:103370002046FEBD00E0010800F00108EEEE00006E
:1033800050C30000D806002000200240C8020020E0
:1033900070B505460E4601240020FFF743FDAB281B
:1033A00008D00C4AC1028918801CC002921E8218E3
:1033B000891C0AE0AB2070BD1088A84204D1403AB5
:1033C000D08F3080002402E0121F8A42F4D82046B9
:1033D00070BD000000E00108F8B505460E4601F09A
:1033E0003DFA0120FFF71EFDAB2807D01E4AC1029F
:1033F0008C18801CC002911E411805E0AB20F8BD5E
:103400002068401C06D0241D8C42F9D301F0DAF963
:103410008020F8BD324600232146012001F0DCF96E
:10342000124800F0D3F8124E002802D0F06980B2A2
:10343000F8BD104F38694008400038612A46002323
:10344000A11C012001F0C8F9084800F0BFF80028CD
:1034500002D0F06980B2F8BD386940084000386198
:10346000F06980B2F8BD000000E0010850C3000020
:10347000D80600200020024070B505460E4601F037
:10348000EDF931462846FFF7A7FF0446802C04D10A
:1034900031462846FFF7F4FE044601F093F9204632
:1034A00070BD000010B5042001F0ECF901490C20BA
:1034B000087010BD09030020FEB500200190002413
:1034C00000F0F2F90090174F26E014206043C51970
:1034D000287C00281ED0E0B2FEF77AFF002819D021
:1034E000114920208871114E0DE00E4A0021323A18
:1034F0003078009BFEF788FA0098FCF732FF01460F
:103500000098FCF700FF0749E868323904F0FCF93D
:103510000028EAD1641CA4B2054800788442D4D3C0
:103520000198FEBDD40D0020B80B00202100002022
:10353000A402002006490020C8610648016904224F
:10354000114301610169402211430161704700008C
:10355000D806002000200240064A0021D161064919
:103560000A6902231A430A6148610869402210432C
:1035700008617047D80600200020024010B5054BB6
:103580000022DA61044A1369012423431361018094
:1035900010BD0000D8060020002002400949C8687C
:1035A000C206094803D5C26902231A43C261CA6828
:1035B000520703D5C26901231A43C2611420C860AF
:1035C0007047000000200240D806002070B5044675
:1035D00001F030FA0546104E0AE0601C08D0002CBD
:1035E00004D001F027FA401BA04201D9032070BD8E
:1035F000F068C007F1D1F068800601D52020F060A6
:10360000F068C00602D4F068400703D5FFF7C6FF94
:10361000012070BD002070BD00200240FEB50446B0
:103620000020009000250026374F78780BF076F9BF
:10363000002305E0435535496A008B526D1CEDB2FD
:10364000314949788D42F5D3761C01192039CE775E
:10365000761CF3B20121641EA4460E2254432C4A68
:10366000A218964672464C00125B002A0DD06446A2
:103670006400264D4E1E01272D5BB740234E3D436F
:103680003553D2081218203AD377491CC9B20629FB
:10369000E8D900245B1CDBB200222AE0855C591EBD
:1036A0008D4224D101211A4E0E255543AD190195A5
:1036B000019D4E00AD5B002D15D0ED082D18203D6D
:1036C000AC46ED7F002D0ED15700104DBE46ED5B90
:1036D0004E1E0127B7403D430C4E7746F5536546D5
:1036E000EB77641CE4B2491CC9B20629E0D9521C2C
:1036F000D2B2054949788A42D0D3002CC9D1009C66
:103700000BF0DAF82046FEBD18000020100700205C
:1037100000020020F0B58FB007460E4634216846FF
:10372000FCF7F1FD002400255049002008841C31DD
:10373000C9192039C8774D491E31C9192039C877B0
:103740000120791E0E225143494A89180E9147499A
:103750001C31891920390D910E994300C95A00294D
:103760000BD0C908B14208D10D9A0121D1773F4948
:1037700020310E70C0B20FB0F0BD401C0628EBDD4A
:1037800001203A494B780EE0B8420BD0374AFF216E
:103790001C321218203AD177344A00211E321218F6
:1037A000203AD177401C9842EEDD36E02F4869463A
:1037B0001C300CF073FC401CC4B2B44232D06946D9
:1037C000012009192039C877611E0E225143284A69
:1037D00089188C4661464200895A002919D049054A
:1037E000090E6A465218203AD27F002A11D11F4B87
:1037F0001C331A19203AD27F521CD2B25B18203BDC
:10380000DF7F974205D9DA77184A1E3251182039DE
:10381000CC77401CC0B20628DCD9684605F06EFBA8
:103820000028C3D0114A2032911E04E02B466D1CA3
:10383000EDB2D454044608192038C07F0028F5D1D1
:1038400001200A4A1F320E994300C95A002907D0A5
:10385000CB080D99C97F895C8B4201D1C0B28AE740
:10386000401C0628EFDD002085E70000180000203E
:1038700000020020F8B5044609480026C670611E03
:1038800038225143074A555C80782946FFF742FFAA
:1038900000232A461946009406F09CFE3046F8BDE7
:1038A00018000020C40700200048704718180020A6
:1038B00030B5002300250024146025E0401C0024BE
:1038C0000457002C03D0202CF8D100E0401C002429
:1038D0000457002C01D0202CF8D00478002C15D0EF
:1038E0005B1C8B4210D1054603E01168491C116036
:1038F000401C00214156002901D02029F5D1106833
:10390000002803D1002501E08B42D8D3284630BDE2
:10391000F7B5064601242A4DA86800281AD1284682
:103920001430A86013E0006807683846FCF719FDFA
:103930000246B056202801D0002805D1394630462D
:10394000FCF73AFD002817D0A8684068A860A8686E
:103950000028E8D1A8680027002801D0002C1DD03D
:10396000002824D00068324683680299019898475D
:103970000446200019D020E0A8680C2100684156B8
:103980000029E7DB30460CF0D1FE0146A8680C2286
:10399000006882569142DDD00024DBE70949029A93
:1039A0000198FCF7C7FCAF6007E0AF6005E006498F
:1039B000029A0198FCF7BEFC00242046FEBD0000E0
:1039C0007C030020E45A01083C5B010870B5054601
:1039D000002D12D008200DF00BFA0446002C0ED05A
:1039E0000EF0E2FC256000206060064841684C60F3
:1039F00044600EF0E5FC012070BD72B6FEE772B6C1
:103A0000FEE700007C03002008B51548426901214B
:103A1000C9040A43426142690A400092426989101E
:103A20000A43426142690A4000924269C9000A435E
:103A3000426142690A400092426989100A43426128
:103A400042690A400092426909010A4342614069A1
:103A50000840009003F01EF803F02EF808BD0000A7
:103A6000001002401CB51E200AF058FF04461E211B
:103A70002046FCF748FC0849088B4A7D00920190DB
:103A8000087D8B7D401E054980000A580449204668
:103A90000AF0D6FE20461CBDB80B002068020020AC
:103AA00068370108F8B50546002426A12846FCF72A
:103AB0005FFC254E00280AD024A12846FCF758FCBC
:103AC000002806D02878232805D0214F22E0B0789E
:103AD000F8BDFF20F8BD681CFCF7AFFCC0B20028A1
:103AE00002D071788842F5D9B178884201D1084670
:103AF000F8BD6620F8BD0A206043C1192846FCF7CE
:103B000037FC002804D12878002801D02046F8BDD1
:103B1000641CE4B270788442EDD300240C4E643E01
:103B20000A20604381192846FCF722FC002805D0B2
:103B3000641CE4B20A2CF3D36420F8BD2002FE30EA
:103B400000B2F8BD6D65000018000020616C6C00CB
:103B5000A607002000B587B06946084808F096FB24
:103B6000002802D0002007B000BD0021034808F063
:103B70007BF968460089FCF788FDF4E71013002004
:103B800000681049884201D1012070470E498842DF
:103B900001D1022070470D49884201D103207047AE
:103BA0000B49884201D1042070470A49884201D15B
:103BB000052070470849884201D10620704700203F
:103BC00070470000004C00400044004000140140D9
:103BD000004800400038014000500040F0B5059D0D
:103BE0001C46002600F088F8224F0923DB06B84265
:103BF00007D10B6001204002108023604000288024
:103C000035E01D4FB84206D10B60042010802360C0
:103C1000082028802BE0194FB84208D118480860C6
:103C20000121890211802060480028801FE0154F83
:103C3000B84206D10B60012010802360022028804A
:103C400015E0114FB84207D10D48086008211180D6
:103C50002060102028800AE00C4FB84206D10B608B
:103C60001020108023602020288000E0FF263046AE
:103C7000F0BD000070100020E01000205011002066
:103C800000040048C011002030120020A0120020C3
:103C900000B587B0002201A9154801F071FE00228D
:103CA00006A9134801F04AFE6946087BC10911487C
:103CB000491CC1740299C903090CC18169468979FB
:103CC0000174694649794174694609798174694684
:103CD000897E41756946497E81756946097E01750F
:103CE0006946C97E7D2212018918018307B000BD93
:103CF000C40C0020B80B002000B503000AF0CBFD77
:103D000007110507090B0D0F1100074800BD0748F3
:103D100000BD074800BD074800BD074800BD074873
:103D200000BD002000BD0000C0110020E0100020F8
:103D3000A01200205011002070100020301200202E
:103D400000B50179002907D0C268816800F010F839
:103D5000002809D0012000BD0268044951610068B3
:103D60008168182291438160002000BDB71DC10405
:103D700030B51F2301252C469C400C4202D15B1E0E
:103D80005C1CF8D1002A11D0082A0BD0102A05D0CB
:103D9000182A0BD1072B09D3012030BD082B05D3DE
:103DA000012030BD102B01D3012030BD03685961C3
:103DB000006881681823994311438160002030BD59
:103DC00070B5044600200023257F012D0BD001256E
:103DD000257702266677266A012E10D0022E13D090
:103DE000032E15D106E0022070BD83002668CB5853
:103DF0003360401C9042F8D32068036808E02046F6
:103E0000FEF758F8034603E02046FEF739F803466C
:103E1000657700202077184670BDF8B5044600206D
:103E20000023257F012D0FD00125257702266677F7
:103E30002668B7682F43B760266A012E10D0022E7D
:103E400013D0032E15D106E00220F8BD83002668AA
:103E5000CB583360401C9042F8D32068036808E0D8
:103E60002046FEF727F8034603E02046FEF708F851
:103E700003466577002020771846F8BD10B5044644
:103E8000002C03D0607F002802D006E0012010BD86
:103E900000202077204600F027F802206077204697
:103EA000FFF74EFF002801D0012010BD60790028E7
:103EB00014D02168206908612068816860229143DC
:103EC0006269114381602068816880229143A26900
:103ED0001143816001206077002010BD002021681F
:103EE000C0430861E8E7000008B504484269402182
:103EF0000A43426140690840009008BD001002403A
:103F0000F8B504462068016849084900016000F0DE
:103F100091FD06460027254620350EE000F08AFD7B
:103F2000811B7D20C000814207D9606B202108439E
:103F30006063032068702F70F8BD20680068C007B8
:103F4000ECD1012068702F700020F8BDF8B5044650
:103F5000F749F74DF64EF64F2068CB14783D643E96
:103F6000503F88423FD9F3490A68A84201D108214D
:103F700037E0B04201D1802133E0B84201D1194687
:103F80002FE0EB493C39884202D10121C90328E0E6
:103F9000E7492839884202D10121C90421E0E449D6
:103FA0001439884202D10121C9051AE0E1490831DA
:103FB000884201D1082114E0DE491C31884201D138
:103FC00080210EE0DB493031884201D1194608E0FA
:103FD000D8494431884202D10121C90301E00121BD
:103FE000C9040A4044E0D24980390A68A84201D194
:103FF00008213CE0B04201D1802138E0B84201D133
:10400000194634E0CA493C39884202D10121C9032A
:104010002DE0C7492839884202D10121C90426E090
:10402000C3491439884202D10121C9051FE0C049A2
:10403000884201D101051AE0BE490831884201D108
:10404000082114E0BB491C31884201D180210EE0D7
:10405000B8493031884201D1194608E0B5494431A8
:10406000884202D10121C90301E00121C9040A40AB
:10407000214620310091002A70D00168C943090708
:104080006CD40168082291430160A94920688842E4
:104090003ED9A84201D1082037E0B04201D18020AA
:1040A00033E0B84201D118462FE0A1493C3988429B
:1040B00002D10120C00328E09D492839884202D15D
:1040C0000120C00421E09A491439884202D101201C
:1040D000C0051AE097490831884201D1082014E050
:1040E00094491C31884201D180200EE09149303141
:1040F000884201D1184608E08E494431884202D1F5
:104100000120C00301E00120C0048A49486044E066
:10411000A84201D108203DE0B04201D1802039E021
:10412000B84201D1184635E0814A3C3A904202D16A
:104130000120C0032EE07E4A283A904202D101209D
:10414000C00427E07A4A143A904202D10120C00507
:1041500020E0884203D10120C0061BE02CE0754915
:104160000831884201D1082014E072491C3188428C
:1041700001D180200EE06F493031884201D11846CC
:1041800008E06C494431884202D10120C00301E0BB
:104190000120C004664980394860606B01210843F2
:1041A0006063009904204870009900200870216B1A
:1041B000002901D0204688475D4920680B158842B8
:1041C0003FD95C490A68A84201D1042137E0B042D6
:1041D00001D1402133E0B84201D119462FE05449C2
:1041E0003C39884202D10121890328E0504928390D
:1041F000884202D10121890421E04D4914398842C5
:1042000002D1012189051AE04A490831884201D1C9
:10421000042114E047491C31884201D140210EE0BD
:1042200044493031884201D1194608E041494431BE
:10423000884202D10121890301E0012189040A4059
:1042400044E03B4980390A68A84201D104213CE09E
:10425000B04201D1402138E0B84201D1194634E0E2
:1042600033493C39884202D1012189032DE030498C
:104270002839884202D10121890426E02C491439C9
:10428000884202D1012189051FE02949884201D1D4
:10429000C1041AE027490831884201D1042114E001
:1042A00024491C31884201D140210EE0214930319E
:1042B000884201D1194608E01E494431884202D1A2
:1042C0000121890301E0012189040A40002A71D0FB
:1042D0000168C94349076DD40168890603D40168A0
:1042E00004229143016012492068884242D9A842C1
:1042F00001D104203AE0B04201D1402036E0B8427A
:1043000001D1184632E00A493C39884202D10120E5
:1043100080032BE006492839884202D1012080041D
:1043200024E003491439884206D1012080051DE0AC
:104330008000024000040240C949884201D10420A3
:1043400014E0C7491431884201D140200EE0C4492D
:104350002831884201D1184608E0C1493C318842E1
:1043600002D10120800301E001208004BC4908390A
:10437000486042E0A84201D104203BE0B04201D1B4
:10438000402037E0B84201D1184633E0B54A9042A8
:1043900002D1012080032DE0B24A1432904202D1B2
:1043A0000120800426E0AF4A2832904203D1012048
:1043B00080051FE029E0884202D10120800619E033
:1043C000A749884201D1042014E0A549143188424C
:1043D00001D140200EE0A2492831884201D118467F
:1043E00008E09F493C31884202D10120800301E06E
:1043F000012080049B494439486000981121417094
:10440000E16A002901D020468847964A20683C325C
:1044100090423FD9924908390B68A84201D1022144
:1044200036E0B04201D1202132E0B84202D1012170
:1044300049022DE08B49884202D10121490327E03E
:1044400088491431884202D10121490420E085497C
:104450002831884202D10121490519E0804988426A
:1044600001D1022114E07E491431884201D120217A
:104470000EE07B492831884201D1411508E0784996
:104480003C31884202D10121490301E00121490464
:104490000B4043E0734944390B68A84201D1022123
:1044A0003BE0B04201D1202137E0B84202D10121E6
:1044B000490232E06B49884202D1012149032CE0D4
:1044C00068491431884202D10121490425E0654937
:1044D0002831884202D1012149051EE0904202D1D3
:1044E0000121490619E05E49884201D1022114E008
:1044F0005B491431884201D120210EE0584928310E
:10450000884201D1411508E055493C31884202D129
:104510000121490301E0012149040B40002B72D025
:104520000168C94389076ED40168890603D401680C
:10453000022399430160206890423ED9A84201D1EC
:10454000022036E0B04201D1202032E0B84202D150
:10455000012040022DE04349884202D1012040035E
:1045600027E040491431884202D10120400420E074
:104570003C492831884202D10120400519E03849E0
:10458000884201D1022014E035491431884201D11A
:1045900020200EE032492831884201D1401508E040
:1045A0002F493C31884202D10120400301E0012023
:1045B00040042B490839486043E0A84201D1022059
:1045C0003CE0B04201D1202038E0B84202D10120C5
:1045D000400233E02349884202D1012040032DE00C
:1045E00020491431884202D10120400426E01D49AF
:1045F0002831884202D1012040051FE0904203D1BA
:10460000012040061AE029E01549884201D1022024
:1046100014E013491431884201D120200EE01049E2
:104620002831884201D1401508E00D493C318842CB
:1046300002D10120400301E001204004094944392E
:104640004860606B60630099012048700099002009
:104650000870A16A002901D020468847F8BD0000F3
:104660000804024044000240F0B5002806D001468C
:1046700020314A780025002A02D002E00120F0BD56
:104680000D7002224A70026814680B4B1C40866849
:10469000436807693343C6683E433343466933433F
:1046A00086693343C669334323431360456301205E
:1046B00048700020F0BD00000FC0FFFFF8B50446B1
:1046C000204620300578012D1ED0012505700226D8
:1046D000467020680768AF4307602046FEF788F8F9
:1046E0002068016831430160206801680422114399
:1046F0000160206801680822114301602068016898
:10470000294301600020F8BD0220F8BD31B500F05A
:1047100091F9044600F08EF90099001B8842F9D304
:1047200038BD0000F8B505460F4601262248017E37
:1047300001290BD0012101762868204C012807D0DF
:104740002046FEF743FF002813D030E00220F8BDDA
:104750002046FEF73BFF002829D1FEF7EBFE20465E
:10476000FEF734FF064616480169042291430161B1
:104770001DE00020C04338606C6812E02046FEF760
:10478000EBFE0E48FEF722FF06460D4801690222A5
:1047900091430161300001D03C6008E00120C0027B
:1047A0002418A9686868C9024018A042E6D80248DF
:1047B000002101763046F8BDD806002050C3000025
:1047C000002002400348016980221143016100205A
:1047D0007047000000200240F0B51FB407461546A0
:1047E0001E4600241A48017E012907D001210176C6
:1047F0001848FEF7EBFE002803D025E0022005B0A4
:10480000F0BD012F03D0022F03D004271AE00127A7
:1048100018E0022716E0220128463146FBF723FD67
:1048200081B2019862001018FEF7A8FE0948FEF751
:10483000CDFE09490A69520852000A61002803D1D5
:10484000641CE4B2BC42E6D3014900220A76D6E7F2
:10485000D806002050C3000000200240054801692E
:10486000090605D5044941600449416000207047AC
:10487000012070470020024023016745AB89EFCD3E
:104880007047000010B504494A69024202D04861ED
:10489000FFF7F6FF10BD000000040140F8B500224C
:1048A00093E001249440A4462340002B7ED04C6822
:1048B000022C01D0122C0CD1D408A40027183D6A78
:1048C0005407E40E0F26A640B5430E69A6402E43BA
:1048D0003E62076855000324AC40A7430E79B60733
:1048E000B60FAE403E4306604E68012E05D0022E44
:1048F00003D0112E01D0122E0ED18768A743CE68A7
:10490000AE403E43866047686646B7430E79F6067A
:10491000F60F96403E434660C668A6438C68AC409E
:104920003443C4604C68E4004ED52B4CA569012685
:104930003543A561A469344000949508274CAD0027
:104940002F19BD689407240F0F26A640B5430926EA
:10495000F606B04201D1002614E0214EB04201D14A
:1049600001260FE01F4EB04201D102260AE01E4E82
:10497000B04201D1032605E01C4EB04201D104260D
:1049800000E00526A6402E43BE60194D2C689C43CE
:104990004E68F60300D51C432C606C689C434E683F
:1049A000B60300D51C436C60AC6800E00CE09C438F
:1049B0004E68F60200D51C43AC60EC689C434E6820
:1049C000B60200D51C43EC60521C0B681C46D44058
:1049D00000D066E7F8BD0000001002400000014072
:1049E0000004004800080048000C0048001000487F
:1049F000000401400069084201D0012070470020F6
:104A0000704742694A4042617047002A01D0816183
:104A10007047816270470000024800680005000D81
:104A2000704700000058014001480068000C7047C2
:104A30000058014001480068704700001400002041
:104A400070B502462032537D022B27D0537D122BA6
:104A500024D0537D222B21D0537D322B1ED0537D69
:104A6000422B1BD0137D012B1AD001241475022375
:104A7000537503681D68A5431D6003681D68260300
:104A8000B5431D6003681D680D431D600068016823
:104A90002143016054750020107570BD022070BD67
:104AA000022070BD70B502462032537D022B26D005
:104AB000537D122B23D0537D222B20D0537D322BBC
:104AC0001DD0537D422B1AD0137D012B19D0012408
:104AD00014750223537503681D68A5431D600368A0
:104AE0001D680F263602B543090229431960006884
:104AF00001682143016054750020107570BD0220CB
:104B000070BD022070BD10B501688A69D243D3051B
:104B10000122002B08DB0B68DB431B0604D4836BEC
:104B2000134383631302CB6101688B69DB435B052D
:104B300009D40B68DB431B0605D4836B082423438D
:104B40008363E301CB6101688B69DB439B0509D477
:104B50000B68DB431B0605D4836B0224234383636A
:104B60002302CB61816B0B23194203D035210A54F8
:104B700000F092F810BD70B50546296888692C468A
:104B8000C04380072034002813DA8869C043000638
:104B90000FD58869C04340060BD58869C04380069D
:104BA00007D58869C043C00603D58869C04300079C
:104BB00009D409687A20884305D1607D322802D162
:104BC000284601F077FE28688169C94389070FD517
:104BD0008169C94309060BD58169C943490607D5CF
:104BE0008169C943890603D58169C943C9060CD4C3
:104BF00001687220884308D1607D122802D0607D50
:104C0000522802D1284601F079FD29688869C043FD
:104C1000400713D58869C04300060FD58869C04393
:104C200040060BD58869C043800607D58869C04314
:104C3000C00603D58869C04300070AD40868C0438A
:104C40004006C00E05D1607D422802D1284601F001
:104C5000E7FD28688169C94349070FD58169C943C0
:104C600009060BD58169C943490607D58169C9433E
:104C7000890603D58169C943C9060CD4016874202B
:104C8000884308D1607D222802D0607D622802D14D
:104C9000284601F0A1FC70BD7047000070B50446C5
:104CA000002C06D025462035687D0026002802D03D
:104CB00005E0012070BD2E75204600F079F9022034
:104CC0006875206801684908490001600F21606823
:104CD0000906884321680861206882680121C903A8
:104CE0008A438260A068002807D0E268012A08D0C1
:104CF00021218902084321688860E068022804D0E5
:104D000007E0084321688860F7E701202168C002B6
:104D10004860206841680C4A11434160616920691C
:104D20000843A169090208432168C860216AE06953
:104D30000843216808602068026801210A43026074
:104D4000A6636975002070BD00800002704770473F
:104D5000FFB583B0064617461C4630462030029009
:104D6000407D012802D0022007B0F0BD002F08D0FE
:104D7000002C06D030688069C043000403D40220B0
:104D8000F2E70120F0E70298007D012815D0029992
:104D9000012008750298222141750020B063092086
:104DA0008002FF2C0BD9012300901B06FF22304606
:104DB000049901F0CFFDFF250AE00220D4E701238A
:104DC0000090E2B25B063046049901F0C3FD25462F
:104DD0000022042130460C9B01F0CEFD002801D0BA
:104DE0000320C1E73068406A38707F1C6D1E641E66
:104DF000A4B2002D22D1002C20D0002280213046E8
:104E00000C9B01F0B9FD002801D00320ACE7FF2C7A
:104E10000AD90020012300901B06FF223046049986
:104E200001F098FDFF2509E0002001230090E2B287
:104E30005B063046049901F08DFD2546002CC7D154
:104E40001921304601F0D4FD002806D0B06B0428AB
:104E500001D0032088E7012086E731682020C8615F
:104E600030684168044A1140416002990120487548
:104E700002990020087577E700E800FEFFB583B0CF
:104E8000064617461C46304620300290407D0128D9
:104E900002D0022007B0F0BD002F08D0002C06D0B1
:104EA00030688069C043000403D40220F2E7012087
:104EB000F0E70298007D012814D0029901200875BE
:104EC0000298122141750020B06301204003FF2C9D
:104ED0000AD9C3020090FF223046049901F03AFD3E
:104EE000FF250AE00220D5E701230090E2B25B062D
:104EF0003046049901F02EFD254630460C9901F00C
:104F00009FFD002806D0B06B042801D00320C1E724
:104F10000120BFE7387831687F1C88626D1E641EEF
:104F2000A4B2002D22D1002C20D0002280213046B6
:104F30000C9B01F021FD002801D00320AAE7FF2CE3
:104F40000AD90020012300901B06FF223046049955
:104F500001F000FDFF2509E0002001230090E2B2EE
:104F60005B063046049901F0F5FC2546002CC4D1BF
:104F700030460C9901F03CFD002806D0B06B0428A7
:104F800001D0032086E7012084E731682020C86132
:104F900030684168044A1140416002990120487517
:104FA00002990020087575E700E800FE7047704719
:104FB000704770477047000002480168491C016053
:104FC000704700001400002010B506480168102248
:104FD00011430160002000F007F800F016F80020EF
:104FE00010BD00000020024010B5044600F0C8F9D2
:104FF0007D21C900FBF7D0F800F052FE00222146C7
:10500000501E00F017F8002010BD7047C106C90EF1
:1050100001208840014908607047000080E100E0FD
:10502000C106C90E01208840014908607047000090
:1050300000E100E010B502F095FB10BD02480168E8
:10504000821511430160704700700040F8B50446B6
:1050500020683C4DC00344D5296A032000026268E1
:105060000140024091423CD0E86929040843E861CC
:10507000E86908400090344F3868091508433860E3
:10508000FFF7D8FC064606E0FFF7D4FC801B642837
:1050900001D90320F8BD3868C005F5D5286A032773
:1050A0003F02B8432A6A012109040A432A622A6A94
:1050B0008A432A62286280070ED5FFF7BBFC0646AA
:1050C00007E0FFF7B7FC811B2048814201D903208C
:1050D000F8BD286A8007F4D5286A6168B843084398
:1050E00028622078C00705D0286BA168800880005E
:1050F000084328632078800706D5286B032109041C
:105100008843E168084328632068400306D5286B7C
:105110000321890488432169084328632078800695
:1051200005D5286B102188436169084328632088CE
:10513000400505D5286B40218843A16908432863B1
:105140000020F8BD001002400070004088130000ED
:10515000F8B504460F4687480068F021C007C00F25
:10516000854EB8427DD283480268520852003A43C5
:1051700002600068C007C00FB84201D00120F8BD2E
:105180002078800704D570688843A1680843706060
:105190002078C00739D06068012808D002280BD0D9
:1051A00003280ED03168890710D40120F8BD31687A
:1051B00089030BD40120F8BD3168890106D4012090
:1051C000F8BD716BC90301D40120F8BD716889086D
:1051D000890001437160FFF72DFC054660680128D6
:1051E00005D0022812D003281FD0644F34E0634F4B
:1051F00006E0FFF71FFC401BB84201D90320F8BDB1
:1052000070680007800F0128F3D1A3E05B4F06E030
:10521000FFF710FC401BB84201D90320F8BD7068AD
:105220000007800F0228F3D194E0544F06E0FFF707
:1052300001FC401BB84201D90320F8BD706800078B
:10524000800F0328F3D185E00BE0FFF7F3FB401B51
:10525000B84201D90320F8BD70680007800FF4D16F
:1052600078E02078800704D570688843A1680843F7
:1052700070602078C00760D06068012808D00228DC
:105280000BD003280ED03168890710D40120F8BD57
:10529000316889030BD40120F8BD3168890106D437
:1052A0000120F8BD716BC90301D40120F8BD7168FC
:1052B0008908890001437160FFF7BCFB05466068FF
:1052C00001280CD0022818D0032824D031E0FFF7A1
:1052D000B1FB411B2948814201D90320F8BD706808
:1052E0000007800F0128F2D127E0FFF7A3FB411B45
:1052F0002248814201D90320F8BD70680007800F61
:105300000228F2D119E0FFF795FB411B1B488142AF
:1053100001D90320F8BD70680007800F0328F2D17F
:105320000BE0FFF787FB411B1448814201D90320A2
:10533000F8BD70680007800FF3D10E480168490876
:105340004900394301600068C007C00FB84201D06E
:105350000120F8BD2078400706D5706807210902B2
:105360008843E168084370600020FFF73DFE00209D
:10537000F8BD000000200240001002408813000029
:1053800010B500F021F805494968054A0906090FDA
:10539000515CC8400349086010BD00000010024085
:1053A000F83401080000002010B5FFF7E9FF0449B8
:1053B0004968044A4905490F515CC84010BD0000C6
:1053C00000100240F834010830B589B01CA0014635
:1053D0000EC9C06805AC0EC408901DA001460EC9D8
:1053E000C06801AC0EC404901D4D6A680C201146C3
:1053F00001401C48042905D01B4B082904D00C2966
:1054000000D1184609B030BD9102090F05AC645CAB
:10541000E96A01AD0907090F695CD203920F022AFC
:1054200005D0032A07D0FAF7B7FE6043EAE7FAF798
:10543000B3FE6043E6E71846FAF7AEFE6043E1E7E5
:1054400002030405060708090A0B0C0D0E0F1010C5
:105450000102030405060708090A0B0C0D0E0F10C4
:105460000010024000127A00006CDC02F8B504461D
:105470002078FA4DC00775D068680007800F0128B2
:1054800016D068680007800F022804D16868C0033E
:10549000800F02280CD0286801263604B04328600B
:1054A0002968B00081432960FFF7C4FA07460EE07F
:1054B0002868800356D56068002853D10120F8BDC4
:1054C000FFF7B8FAC01B642801D90320F8BD28688B
:1054D0008003F5D46068012813D0002815D0052872
:1054E0001DD029682846B143296001680122920431
:1054F000914301606068002826D0FFF79BFA0646BA
:105500001EE0296831432960F4E729682846B14341
:1055100029600268012189048A430260EAE72A6857
:105520002846012189040A432A6001683143016049
:10553000E0E7FFF77FFA801B642801D90320F8BD5C
:1055400028688003F5D50DE0FFF774FA064606E0FB
:10555000FFF770FA801B642801D90320F8BD286882
:105560008003F5D420780126800700284BDA68688C
:105570000007800F13D068680007800F022804D14D
:105580006868C003800F012809D0E068002828D08F
:10559000286830432860FFF74DFA074616E0286870
:1055A000800704D5E068012801D00120F8BD2868F3
:1055B000F82188432169C9000843286023E0FFF7E8
:1055C00039FAC01B642801D90320F8BD2868800778
:1055D000F5D52868F82188432169C9000843286067
:1055E00011E02868400840002860FFF723FA0746CA
:1055F00006E0FFF71FFAC01B642801D90320F8BD9D
:1056000028688007F5D42078000726D5206A00286E
:1056100011D0686A30436862FFF70CFA074606E06B
:10562000FFF708FAC01B642801D90320F8BD686A97
:105630008007F5D511E0686A400840006862FFF70E
:10564000F9F9074606E0FFF7F5F9C01B642801D910
:105650000320F8BD686A8007F5D4207840077BD521
:10566000E969012000070143E961E969014000910E
:105670007B480168821511430160FFF7DBF907469B
:1056800006E0FFF7D7F9C01B642801D90320F8BD55
:1056900073480068C005F4D5286A400840002862B5
:1056A000296A042081432962FFF7C4F9074607E00D
:1056B000FFF7C0F9C11B6B48814201D90320F8BD37
:1056C000286A8007F4D4A068012813D0002815D0D8
:1056D00005281DD0296A2846490849002962026A1E
:1056E00004218A430262A068002826D0FFF7A2F9AD
:1056F00007461EE0296A31432962F4E7296A2846F1
:10570000490849002962026A04218A430262EAE7E1
:10571000296A2846042211432962016A3143016241
:10572000E1E7FFF787F9C11B4E48814201D9032009
:10573000F8BD286A8007F4D50EE0FFF77BF907462D
:1057400007E0FFF777F9C11B4648814201D90320E2
:10575000F8BD286A8007F4D42078C00643D5606974
:1057600001280DD0401D28D0686B042108436863D0
:10577000686B400840006863FFF75CF906462FE05D
:10578000686B042108436863686B30436863FFF704
:1057900051F9064606E0FFF74DF9801B642801D950
:1057A0000320F8BD686B8007F5D5686BF821884346
:1057B000A169C9000843686315E0686B0421884348
:1057C0006863686BF8218843A169C900084368636E
:1057D00009E0FFF72FF9801B642801D90320F8BDE9
:1057E000686B8007F5D42078800647D56868000785
:1057F000800F032815D068680007800F022804D1A5
:105800006868C003800F03280BD0E06900281BD014
:10581000686B0121090408436863FFF70BF906462A
:105820000EE0686BC00329D5E069012826D001206D
:10583000F8BDFFF7FFF8801B642801D90320F8BDED
:10584000686BC003F5D519E0686B01210904884332
:105850006863FFF7EFF806460DE000000010024015
:105860000070004088130000FFF7E4F8801B6428F4
:1058700001D90320F8BD686BC003F5D4606A002825
:105880004BD069680907890F022948D001273F06D4
:10589000022806D02868B8432860FFF7CBF80446F2
:1058A00038E02868B8432860FFF7C4F8064606E0E9
:1058B000FFF7C0F8801B642801D90320F8BD2868D1
:1058C0008001F5D4E86A216B000900010843E86211
:1058D000A16AE06A084369687B22D20391430843C6
:1058E0006860286838432860FFF7A4F8044606E09B
:1058F000FFF7A0F8001B642801D90320F8BD286831
:105900008001F5D509E0FFF795F8001B642801D95F
:105910000320F8BD28688001F5D40020F8BD0120DF
:10592000F8BD0068503089000818006870470068AA
:1059300050308900081802607047000010B50B460F
:10594000006841680D480140080CD870CC04E40E92
:105950005C708C06A40E9C700904490F1970002A13
:105960000AD103F0DBFAD870587803F0D7FA5870F0
:10597000987803F0D3FA9870002010BD3FFFFF0025
:1059800010B50B460168896A5960006801680F48C4
:1059900001408802800E18704C04640E5C704C0646
:1059A000640E9C70090C402421401972002A0AD10F
:1059B00003F0B4FA1870587803F0B0FA5870987879
:1059C00003F0ACFA9870002010BD00007F7F7F00CC
:1059D00070B50446002C03D0607F002802D006E09A
:1059E000012070BD00202077204600F043F80220FF
:1059F00060772168CA2048622168532048622046A7
:105A000003F022FBFF21002805D02068416204201A
:105A10006077012070BD20688268154B1A40826053
:105A200020688268636865691A4323692B431A43B7
:105A300082602268E06810612068026923891B0483
:105A40001A4302612068C26880239A43C2602068BA
:105A5000026CDB029A4302642068026CA3691A4359
:105A600002642068416201206077002070BD000060
:105A7000BFFF8FFF70470000F8B504460B46207F3C
:105A8000012806D00120207702206077002A02D06A
:105A900008E00220F8BD5878C10603D5EF21084080
:105AA0000A305870002A23D0587803F037FA9878D3
:105AB00003F034FAD8789D780004054358781978B3
:105AC00000024903084305432168CA20486221684F
:105AD00053204862204603F0B7FA0026FF2700282B
